{
  "btc.signTransaction": {
    "jsonrpc": "2.0",
    "method": "btc.signTransaction",
    "params": {
      "utxo": [
        {
          "txHash": "983adf9d813a2b8057454cc6f36c6081948af849966f9b9a33e5b653b02f227a",
          "vout": 0,
          "amount": 200000000,
          "address": "mh7jj2ELSQUvRQELbn9qyA4q5nADhmJmUC",
          "scriptPubkey": "76a914118c3123196e030a8a607c22bafc1577af61497d88ac",
          "derivedPath": "0/22",
          "sequence": 4294967295
        },
        {
          "txHash": "45ef8ac7f78b3d7d5ce71ae7934aea02f4ece1af458773f12af8ca4d79a9b531",
          "vout": 1,
          "amount": 200000000,
          "address": "mkeNU5nVnozJiaACDELLCsVUc8Wxoh1rQN",
          "scriptPubkey": "76a914383fb81cb0a3fc724b5e08cf8bbd404336d711f688ac",
          "derivedPath": "0/0",
          "sequence": 4294967295
        },
        {
          "txHash": "14c67e92611dc33df31887bbc468fbbb6df4b77f551071d888a195d1df402ca9",
          "vout": 0,
          "amount": 200000000,
          "address": "mkeNU5nVnozJiaACDELLCsVUc8Wxoh1rQN",
          "scriptPubkey": "76a914383fb81cb0a3fc724b5e08cf8bbd404336d711f688ac",
          "derivedPath": "0/0",
          "sequence": 4294967295
        },
        {
          "txHash": "117fb6b85ded92e87ee3b599fb0468f13aa0c24b4a442a0d334fb184883e9ab9",
          "vout": 1,
          "amount": 200000000,
          "address": "mkeNU5nVnozJiaACDELLCsVUc8Wxoh1rQN",
          "scriptPubkey": "76a914383fb81cb0a3fc724b5e08cf8bbd404336d711f688ac",
          "derivedPath": "0/0",
          "sequence": 4294967295
        }
      ],
      "to": "moLK3tBG86ifpDDTqAQzs4a9cUoNjVLRE3",
      "changeAddressIndex": 53,
      "amount": 799988000,
      "fee": 10000,
      "extraData": "0200000080a10bc28928f4c17a287318125115c3f098ed20a8237d1e8e4125bc25d1be99752adad0a7b9ceca853768aebb6965eca126a62965f698a0c1bc43d83db632ad7f717276057e6012afa99385",
      "payment": "0.0001 BT",
      "toDis": "3CVD68V71no5jn2UZpLLq6hASpXu1jrByt",
      "from": "3GrvKsZWbb9ocBaNF7XosFZEKuCVBRSoiy",
      "feeDis": "0.00007945 BTC",
      "network": "TESTNET",
      "pathPrefix": "m/44'/1'/0'",
      "txHash": "d40ceeecbb1ad07e7a19d4c807808ad7b5c78854cfebd7f25e2f79fcc43055f4"
    },
    "id": 1
  },
  "btc.signTransaction.result": {
    "jsonrpc:": "2.0",
    "result": {
      "txHash": "d40ceeecbb1ad07e7a19d4c807808ad7b5c78854cfebd7f25e2f79fcc43055f4",
      "txData": "01000000047a222fb053b6e5339a9b6f9649f88a9481606cf3c64c4557802b3a819ddf3a98000000006a47304402207fbe1aa92e06847b600e62769576d39215836baabddd05d8454304b8411fead702203deeab72295057d44918d42c227b0fd337812673fe8e60f1483117adf016c57901210312a0cb31ff52c480c049da26d0aaa600f47e9deee53d02fc2b0e9acf3c20fbdfffffffff31b5a9794dcaf82af1738745afe1ecf402ea4a93e71ae75c7d3d8bf7c78aef45010000006b483045022100ee223feab22dbaa37258d6cfa9a5f3ed506c5d5f00d6af26b722e21abfb489b30220792d9a8c6303300037e46baac603893adc9109cdd062e4e15b726f7ccbf6edd70121033d710ab45bb54ac99618ad23b3c1da661631aa25f23bfe9d22b41876f1d46e4effffffffa92c40dfd195a188d87110557fb7f46dbbfb68c4bb8718f33dc31d61927ec614000000006a473044022051d9a35e9f82a79769daddd52ef829e2637c20340e2b50942e83d1bb2d9b69ad022042bb388ae7d64d6b556544a5f6d9ce1a36d26670101e61831e6dd3fa532119200121033d710ab45bb54ac99618ad23b3c1da661631aa25f23bfe9d22b41876f1d46e4effffffffb99a3e8884b14f330d2a444a4bc2a03af16804fb99b5e37ee892ed5db8b67f11010000006a47304402206a8f7d6c14bd0368af518bb6467f75b5a573b0ffe8d948ff689e93f51c7f594c02200d72f37aef7bb6fbbeacc4ccc736210306c3a1f86b84144aa2193bce2227e1540121033d710ab45bb54ac99618ad23b3c1da661631aa25f23bfe9d22b41876f1d46e4effffffff0220d9ae2f000000001976a91455bdc1b42e3bed851959846ddf600e96125423e088ac0000000000000000536a4c500200000080a10bc28928f4c17a287318125115c3f098ed20a8237d1e8e4125bc25d1be99752adad0a7b9ceca853768aebb6965eca126a62965f698a0c1bc43d83db632ad7f717276057e6012afa9938500000000"
    },
    "id:": 1
  },
  "btc.signSegWitTransaction": {
    "jsonrpc": "2.0",
    "method": "btc.signSegWitTransaction",
    "params": {
      "utxo": [
        {
          "txHash": "c2ceb5088cf39b677705526065667a3992c68cc18593a9af12607e057672717f",
          "vout": 0,
          "amount": 50000,
          "address": "2MwN441dq8qudMvtM5eLVwC3u4zfKuGSQAB",
          "scriptPubkey": "a9142d2b1ef5ee4cf6c3ebc8cf66a602783798f7875987",
          "derivedPath": "0/0",
          "sequence": 0
        },
        {
          "txHash": "9ad628d450952a575af59f7d416c9bc337d184024608f1d2e13383c44bd5cd74",
          "vout": 0,
          "amount": 50000,
          "address": "2N54wJxopnWTvBfqgAPVWqXVEdaqoH7Suvf",
          "scriptPubkey": "a91481af6d803fdc6dca1f3a1d03f5ffe8124cd1b44787",
          "derivedPath": "0/1",
          "sequence": 0
        }
      ],
      "to": "2N9wBy6f1KTUF5h2UUeqRdKnBT6oSMh4Whp",
      "changeAddressIndex": 0,
      "amount": 88000,
      "fee": 10000,
      "extraData": "1234",
      "payment": "0.0001 BT",
      "toDis": "3CVD68V71no5jn2UZpLLq6hASpXu1jrByt",
      "from": "3GrvKsZWbb9ocBaNF7XosFZEKuCVBRSoiy",
      "feeDis": "0.00007945 BTC",
      "network": "TESTNET",
      "pathPrefix": "m/49'/1'/0'/",
      "txHash": "3b2178aa4d52377226dd394776680a91a05781fe93ce42666e307dc16aeaae99",
      "wtxId": "92fa20346dc6a97d852db332beffb7d60d57d82207b63c6484d886541a924041"
    },
    "id": 2
  },
  "btc.signSegWitTransaction.result": {
    "jsonrpc:": "2.0",
    "result": {
      "txHash": "3b2178aa4d52377226dd394776680a91a05781fe93ce42666e307dc16aeaae99",
      "witnessTxData": "020000000001027f717276057e6012afa99385c18cc692397a666560520577679bf38c08b5cec20000000017160014654fbb08267f3d50d715a8f1abb55979b160dd5bffffffff74cdd54bc48333e1d2f108460284d137c39b6c417d9ff55a572a9550d428d69a00000000171600149d66aa6399de69d5c5ae19f9098047760251a854ffffffff02c05701000000000017a914b710f6e5049eaf0404c2f02f091dd5bb79fa135e870000000000000000046a021234024730440220527c098c320c54ac56445b757a76833f7a47229fa0fe2b179f55bd718822695e022060f48b05c46f8335266eade0fe503448ff4222efc7e84ef86a25abffbe02ead20121031aee5e20399d68cf0035d1a21564868f22bc448ab205292b4279136b15ecaebc024730440220551ab42b94841b43e6118a6adb39a561f138ae9ee8d2c00ffa3886839afe66d2022046686666245b94b7272d7cbd17a6f20639532ddefafe0572ecc28dcb246d33f8012103a241c8d13dd5c92475652c43bf56580fbf9f1e8bc0aa0132ddc8443c03062bb900000000",
      "wtxHash": "92fa20346dc6a97d852db332beffb7d60d57d82207b63c6484d886541a924041"
    },
    "id:": 2
  },
  "btc.signUsdtTransaction": {
    "jsonrpc": "2.0",
    "method": "btc.signUsdtTransaction",
    "params": {
      "utxo": [
        {
          "txHash": "0dd195c815c5086c5995f43a0c67d28344ae5fa130739a5e03ef40fea54f2031",
          "vout": 0,
          "amount": 14824854,
          "address": "mkeNU5nVnozJiaACDELLCsVUc8Wxoh1rQN",
          "scriptPubkey": "76a914383fb81cb0a3fc724b5e08cf8bbd404336d711f688ac",
          "derivedPath": "0/0",
          "sequence": 4294967295
        }
      ],
      "to": "moLK3tBG86ifpDDTqAQzs4a9cUoNjVLRE3",
      "amount": 10050000000,
      "fee": 4000,
      "payment": "100 USDT",
      "toDis": "moLK3tBG86ifpDDTqAQzs4a9cUoNjVLRE3",
      "from": "2MwN441dq8qudMvtM5eLVwC3u4zfKuGSQAB",
      "feeDis": "0.0004 BTC",
      "propertyId": 31,
      "network": "TESTNET",
      "pathPrefix": "m/44'/1'/0'",
      "txHash": "36a25fa2005b5d4922d18f6f819bf068dca479d4103904ce225a9438a2c1f5a0"
    },
    "id": 3
  },
  "btc.signUsdtTransaction.result": {
    "jsonrpc:": "2.0",
    "result": {
      "txHash": "36a25fa2005b5d4922d18f6f819bf068dca479d4103904ce225a9438a2c1f5a0",
      "txData": "010000000131204fa5fe40ef035e9a7330a15fae4483d2670c3af495596c08c515c895d10d000000006a47304402206ac15b4d02b503116770ca485e33a495fd2370cb8a6fa1d9870e62503dee035a02203754d4c4bf8d58cd98d10ca5797a7f98f2095bee8176dd94d5b39bdb07c57cf00121033d710ab45bb54ac99618ad23b3c1da661631aa25f23bfe9d22b41876f1d46e4effffffff03d423e200000000001976a914383fb81cb0a3fc724b5e08cf8bbd404336d711f688ac22020000000000001976a91455bdc1b42e3bed851959846ddf600e96125423e088ac0000000000000000166a146f6d6e69000000000000001f000000025706d48000000000"
    },
    "id:": 3
  },
  "btc.signUsdtSegWitTransaction": {
    "jsonrpc": "2.0",
    "method": "btc.signUsdtSegWitTransaction",
    "params": {
      "utxo": [
        {
          "txHash": "9baf6fd0e560f9f199f4879c23cb73b9c4affb54a1cfdbacb85687efa89f4c78",
          "vout": 1,
          "amount": 21863396,
          "address": "2MwN441dq8qudMvtM5eLVwC3u4zfKuGSQAB",
          "scriptPubkey": "a9142d2b1ef5ee4cf6c3ebc8cf66a602783798f7875987",
          "derivedPath": "0/0",
          "sequence": 0
        }
      ],
      "to": "moLK3tBG86ifpDDTqAQzs4a9cUoNjVLRE3",
      "amount": 10000000000,
      "fee": 4000,
      "payment": "100 USDT",
      "toDis": "moLK3tBG86ifpDDTqAQzs4a9cUoNjVLRE3",
      "from": "2MwN441dq8qudMvtM5eLVwC3u4zfKuGSQAB",
      "feeDis": "0.0004 BTC",
      "propertyId": 31,
      "network": "TESTNET",
      "pathPrefix": "m/49'/1'/0'/",
      "txHash": "e664888c4a67cfed29786e5ada0c24cb25b91cafca4ae699fb7b90e7071e88bc",
      "wtxHash": "acde42849de610fcd79da9f9b782bc9dc08545af82be830ca6e28362865099ba"
    },
    "id": 4
  },
  "btc.signUsdtSegWitTransaction.result": {
    "jsonrpc:": "2.0",
    "result": {
      "txHash": "e664888c4a67cfed29786e5ada0c24cb25b91cafca4ae699fb7b90e7071e88bc",
      "witnessTxData": "02000000000101784c9fa8ef8756b8acdbcfa154fbafc4b973cb239c87f499f1f960e5d06faf9b0100000017160014654fbb08267f3d50d715a8f1abb55979b160dd5bffffffff03228a4d010000000017a9142d2b1ef5ee4cf6c3ebc8cf66a602783798f787598722020000000000001976a91455bdc1b42e3bed851959846ddf600e96125423e088ac0000000000000000166a146f6d6e69000000000000001f00000002540be40002483045022100d2d521822c2ec4d5396928ca21420c963876d9c946932adb030c0cc976198c6b02206aa58d146f3e6b613a178cf87163dd887ca3f13944117d29b8877c86a0e5811e0121031aee5e20399d68cf0035d1a21564868f22bc448ab205292b4279136b15ecaebc00000000",
      "wtxHash": "acde42849de610fcd79da9f9b782bc9dc08545af82be830ca6e28362865099ba"
    },
    "id:": 4
  },
  "btc.getXpub": {
    "jsonrpc": "2.0",
    "method": "btc.getXpub",
    "params": {
      "network": "MAINNET",
      "path": "m/44'/0'/0'/0/0"
    },
    "id": 5
  },
  "btc.getXpub.result": {
    "jsonrpc:": "2.0",
    "result": {
      "xpub": "xpub6FuzpGNBc46EfvmcvECyqXjrzGcKErQgpQcpvhw1tiC5yXvi1jUkzudMpdg5AaguiFstdVR5ASDbSceBswKRy6cAhpTgozmgxMUayPDrLLX"
    },
    "id:": 5
  },
  "btc.getAddress": {
    "jsonrpc": "2.0",
    "method": "btc.getAddress",
    "params": {
      "network": "MAINNET",
      "path": "m/44'/0'/0'/0/0"
    },
    "id": 6
  },
  "btc.getAddress.result": {
    "jsonrpc:": "2.0",
    "result": {
      "address": "12z6UzsA3tjpaeuvA2Zr9jwx19Azz74D6g"
    },
    "id:": 6
  },
  "btc.getSegWitAddress": {
    "jsonrpc": "2.0",
    "method": "btc.getSegWitAddress",
    "params": {
      "network": "MAINNET",
      "path": "m/49'/0'/0'/0/22"
    },
    "id": 7
  },
  "btc.getSegWitAddress.result": {
    "jsonrpc:": "2.0",
    "result": {
      "address": "37E2J9ViM4QFiewo7aw5L3drF2QKB99F9e"
    },
    "id:": 7
  },
  "btc.registerAddress": {
    "jsonrpc": "2.0",
    "method": "btc.registerAddress",
    "params": {
      "network": "MAINNET",
      "path": "m/44'/0'/0'/0/0"
    },
    "id": 8
  },
  "btc.registerAddress.result": {
    "jsonrpc:": "2.0",
    "result": {
      "address": "12z6UzsA3tjpaeuvA2Zr9jwx19Azz74D6g"
    },
    "id:": 8
  },
  "btc.registerSegWitAddress": {
    "jsonrpc": "2.0",
    "method": "btc.registerSegWitAddress",
    "params": {
      "network": "MAINNET",
      "path": "m/49'/0'/0'/0/0"
    },
    "id": 9
  },
  "btc.registerSegWitAddress.result": {
    "jsonrpc:": "2.0",
    "result": {
      "address": "3JmreiUEKn8P3SyLYmZ7C1YCd4r2nFy3Dp"
    },
    "id:": 9
  },
  "eth.signTransaction": {
    "jsonrpc": "2.0",
    "method": "eth.signTransaction",
    "params": {
      "transaction": {
        "data": "",
        "gasLimit": 189000,
        "gasPrice": 20000000008,
        "nonce": 8,
        "to": "0x3535353535353535353535353535353535353535",
        "value": 512,
        "chainId": "28",
        "path": "m/44'/60'/0'/0/0"
      },
      "preview": {
        "payment": "0.01 ETH",
        "receiver": "0xE6F4142dfFA574D1d9f18770BF73814df07931F3",
        "sender": "0x6031564e7b2F5cc33737807b2E58DaFF870B590b",
        "fee": "0.0032 ether"
      },
      "txHash": "0x09fa41c4d6b92482506c8c56f65b217cc3398821caec7695683110997426db01"
    },
    "id": 10
  },
  "eth.signTransaction.result": {
    "jsonrpc:": "2.0",
    "result": {
      "txHash": "0x09fa41c4d6b92482506c8c56f65b217cc3398821caec7695683110997426db01",
      "txData": "f867088504a817c8088302e248943535353535353535353535353535353535353535820200805ba03aa62abb45b77418caf139dda0179aea802c99967b3d690b87d586a87bc805afa02b5ce94f40dc865ca63403e0e5e723e1523884f001573677cd8cec11c7ca332f"
    },
    "id:": 10
  },
  "eth.signMessage": {
    "jsonrpc": "2.0",
    "method": "eth.signMessage",
    "params": {
      "data": "Hello imKey",
      "sender": "0x6031564e7b2F5cc33737807b2E58DaFF870B590b",
      "path": "m/44'/60'/0'/0/0",
      "signature": "d928f76ad80d63003c189b095078d94ae068dc2f18a5cafd97b3a630d7bc47465bd6f1e74de2e88c05b271e1c5a8b93564d9d8842c207482b20634d68f2d54e51b"
    },
    "id": 11
  },
  "eth.signMessage.result": {
    "jsonrpc:": "2.0",
    "result": {
      "signature": "d928f76ad80d63003c189b095078d94ae068dc2f18a5cafd97b3a630d7bc47465bd6f1e74de2e88c05b271e1c5a8b93564d9d8842c207482b20634d68f2d54e51b"
    },
    "id:": 11
  },
  "eth.getAddress": {
    "jsonrpc": "2.0",
    "method": "eth.getAddress",
    "params": {
      "path": "m/44'/60'/0'/0/0"
    },
    "id": 12
  },
  "eth.getAddress.result": {
    "jsonrpc:": "2.0",
    "result": {
      "address": "0x6031564e7b2F5cc33737807b2E58DaFF870B590b"
    },
    "id:": 12
  },
  "eth.registerAddress": {
    "jsonrpc": "2.0",
    "method": "eth.registerAddress",
    "params": {
      "path": "m/44'/60'/0'/0/0"
    },
    "id": 13
  },
  "eth.registerAddress.result": {
    "jsonrpc:": "2.0",
    "result": {
      "address": "0x6031564e7b2F5cc33737807b2E58DaFF870B590b"
    },
    "id:": 13
  },
  "eos.signTransaction": {
    "jsonrpc": "2.0",
    "method": "eos.signTransaction",
    "params": {
      "publicKeys": [
        {
          "publicKey": "EOS88XhiiP7Cu5TmAUJqHbyuhyYgd6sei68AU266PyetDDAtjmYWF"
        }
      ],
      "txData": "c578065b93aec6a7c811000000000100a6823403ea3055000000572d3ccdcd01000000602a48b37400000000a8ed323225000000602a48b374208410425c95b1ca80969800000000000453595300000000046d656d6f00",
      "chainId": "aca376f206b8fc25a6ed44dbdc66547c36c6c33e3a119ffbeaef943642f0e906",
      "path": "m/44'/194'/0'/0/0",
      "preview": {
        "payment": "1000 eos",
        "to": "bbbb5555bbbb",
        "from": "liujianmin12"
      },
      "txHash": "6af5b3ae9871c25e2de195168ed7423f455a68330955701e327f02276bb34088"
    },
    "id": 14
  },
  "eos.signTransaction.result": {
    "jsonrpc:": "2.0",
    "result": {
      "list": [
        {
          "hash": "6af5b3ae9871c25e2de195168ed7423f455a68330955701e327f02276bb34088",
          "signs": [
            "SIG_K1_KAPzeZtUYNxrQsAeChG99gi8tb8yps5pZ91eKQPGead5AVgwv4kji6rN5ex2XTrSX6asdvcosdMXeidTrQvdkjEQSRckVE"
          ]
        }
      ]
    },
    "id:": 14
  },
  "eos.signMessage": {
    "jsonrpc": "2.0",
    "method": "eos.signMessage",
    "params": {
      "data": "imKey2019",
      "isHex": false,
      "path": "m/44'/194'/0'/0/0",
      "publicKey": "EOS88XhiiP7Cu5TmAUJqHbyuhyYgd6sei68AU266PyetDDAtjmYWF",
      "signature": "SIG_K1_K2mrf6ASTK5TCJC6kzZzyQm9uRZm7Jx4fa6gsmWx2sEreokRWmnHQGTRNwKLNF6NVJtXmjmUvR96XYct1DjMJnwRZBbTYR"
    },
    "id": 15
  },
  "eos.signMessage.result": {
    "jsonrpc:": "2.0",
    "result": {
      "signature": "SIG_K1_K2mrf6ASTK5TCJC6kzZzyQm9uRZm7Jx4fa6gsmWx2sEreokRWmnHQGTRNwKLNF6NVJtXmjmUvR96XYct1DjMJnwRZBbTYR"
    },
    "id:": 15
  },
  "eos.getPubKey": {
    "jsonrpc": "2.0",
    "method": "eos.getPubKey",
    "params": {
      "path": "m/44'/194'/0'/0/0"
    },
    "id": 16
  },
  "eos.getPubKey.result": {
    "jsonrpc:": "2.0",
    "result": {
      "pubkey": "EOS88XhiiP7Cu5TmAUJqHbyuhyYgd6sei68AU266PyetDDAtjmYWF"
    },
    "id:": 16
  },
  "eos.registerPubKey": {
    "jsonrpc": "2.0",
    "method": "eos.registerPubKey",
    "params": {
      "path": "m/44'/194'/0'/0/0"
    },
    "id": 17
  },
  "eos.registerPubKey.result": {
    "jsonrpc:": "2.0",
    "result": {
      "pubkey": "EOS88XhiiP7Cu5TmAUJqHbyuhyYgd6sei68AU266PyetDDAtjmYWF"
    },
    "id:": 17
  },
  "cosmos.signTransaction": {
    "jsonrpc": "2.0",
    "method": "cosmos.signTransaction",
    "params": {
      "path": "m/44'/118'/0'/0/0",
      "fee": {
        "amount": [
          {
            "amount": "750",
            "denom": "muon"
          }
        ],
        "gas": "30000"
      },
      "msg": [
        {
          "type": "cosmos-sdk/MsgSend",
          "value": {
            "amount": [
            ],
            "fromAddress": "cosmos1ajz9y0x3wekez7tz2td2j6l2dftn28v26dd992",
            "toAddress": "cosmos1yeckxz7tapz34kjwnjxvmxzurerquhtrmxmuxt"
          }
        }
      ],
      "memo": "",
      "accountNumber": "1234567890",
      "chainId": "tendermint_test",
      "sequence": "1234567890",
      "preview": {
        "paymentDis": "",
        "toDis": "",
        "fromDis": "",
        "feeDis": "0.00075 atom"
      },
      "signatures": [
        {
          "pub_key": {
            "type": "tendermint/PubKeySecp256k1",
            "value": "AjLB7yHXPBlTGwqk6GPPOXwrmCsvlY9gzbYpaYJMCW1l"
          },
          "signature": "R3CcENwwA9k/rr8VeHagD1X86jNZx2qrrBCKn1G3Satnv+Gkrk/VUdo57unGZObFTq7Ts21dbMQ94sBe403NRw=="
        }
      ]
    },
    "id": 18
  },
  "cosmos.signTransaction.result": {
    "jsonrpc:": "2.0",
    "result": {
      "txHash": "",
      "txData": "{\"fee\":{\"amount\":[{\"amount\":\"750\",\"denom\":\"muon\"}],\"gas\":\"30000\"},\"memo\":\"\",\"signatures\":[{\"account_number\":\"1234567890\",\"pub_key\":{\"type\":\"tendermint/PubKeySecp256k1\",\"value\":\"AjLB7yHXPBlTGwqk6GPPOXwrmCsvlY9gzbYpaYJMCW1l\"},\"sequence\":\"1234567890\",\"signature\":\"AmMvo7RhDOD4E9PeK2igCAv+rI8R9U/4x7scp4/5YPAj7FzGQXjDtV3cPLcrcZEyqLYKs4NLGWU18Bjx9D0cTA==\"}],\"msg\":[{\"type\":\"cosmos-sdk/MsgSend\",\"value\":{\"amount\":[],\"fromAddress\":\"cosmos1ajz9y0x3wekez7tz2td2j6l2dftn28v26dd992\",\"toAddress\":\"cosmos1yeckxz7tapz34kjwnjxvmxzurerquhtrmxmuxt\"}}]}"
    },
    "id:": 18
  },
  "cosmos.getAddress": {
    "jsonrpc": "2.0",
    "method": "cosmos.getAddress",
    "params": {
      "path": "m/44'/118'/0'/0/0"
    },
    "id": 19
  },
  "cosmos.getAddress.result": {
    "jsonrpc:": "2.0",
    "result": {
      "address": "cosmos1ajz9y0x3wekez7tz2td2j6l2dftn28v26dd992"
    },
    "id:": 19
  },
  "cosmos.registerAddress": {
    "jsonrpc": "2.0",
    "method": "cosmos.registerAddress",
    "params": {
      "path": "m/44'/118'/0'/0/0"
    },
    "id": 20
  },
  "cosmos.registerAddress.result": {
    "jsonrpc:": "2.0",
    "result": {
      "address": "cosmos1ajz9y0x3wekez7tz2td2j6l2dftn28v26dd992"
    },
    "id:": 20
  }
}
